:020000040000FA
:020000002B28AB
:0800080082077E3430346D34B0
:10001000793433345B345F3470347F347334603418
:1000200010344E348312031385120301013C031D67
:1000300016282008930083160313141C1D2883120E
:1000400003132108930083160313141C252883121D
:1000500003138516080083120313850186018701A7
:1000600083160313003085001030870083120313BA
:100070000130940014168316031394171417831277
:10008000031394160C30A0000130A10012200B3095
:10009000A0000430A10012200930A0000030A1000F
:1000A00012200A30A0000830A10012200130A00068
:0800B0000B300420A100122016
:02400E00C420CC
:02401000FF3E71
:00000001FF
