:020000040000FA
:02000000BA281C
:08000800831203138501860138
:0A0010008701B310061BB314BA28D1
:1000200082077E3430346D34793433345B345F345A
:1000300070347F347334603410344E340034BD0176
:10004000BE01BF01C0018312031333185B28831262
:1000500003133008BC006430BC020318BF0A031845
:100060002B286430BC070A30BC020318BE0A0318F0
:1000700033280A303C07BD000530BA000A30102092
:10008000BB0099200130BA000D301020BB00992030
:100090000230BA003F081020BB0099200330BA009C
:1000A0003E081020BB0099200430BA003D08102003
:1000B000BB00992008003208BD000230BE000A30A3
:1000C000BD02031C6A28BE0ABE195F28BE185F283D
:1000D000BF0A5F280A30BD070530BA000B30102078
:1000E000BB0099200130BA003F081020BB009920C6
:1000F0000230BA003E081020BB0099200330BA003D
:100100003D081020BB0099200430BA000C301020AC
:10011000BB009920080083120313360884000008EE
:10012000C400441CB0004418B20033103618331415
:1001300008008312031385123A08930083160313F1
:10014000141CA028831203133B0893008316031387
:10015000141CA8288312031385161030C100013027
:10016000C2000130C300C10BB328C20BB328C30BBC
:10017000B32808008316031317308500F330860078
:100180001030870083160313F33095008316031392
:1001900081138316031788018316031789018312BD
:1001A000031386150030C1000030C2000430C300C4
:1001B000C10BD828C20BD828C30BD8288611003011
:1001C000C1000030C2000430C300C10BE528C20BDF
:1001D000E528C30BE528831203132030B600B700CF
:1001E000B801B001B101B201831203130130060559
:1001F000831603130113031901178B100B168B11B0
:10020000831603138C01831603138D018B1783163A
:10021000031361308F00831203130130940014160E
:1002200083160313941714178312031394160C30B8
:10023000BA000130BB0099200F30BA000030BB007B
:1002400099200B30BA000430BB0099200930BA0065
:100250000030BB0099200A30BA000830BB0099205A
:100260008316031381128111011181100110831271
:1002700003138B1283120313370884003808831288
:1002800003178D00831603178C130C1483120317A6
:100290000C08800083120313B70AB80A381E3A29E3
:1002A0008B201F200030C1000030C2000230C3008C
:1002B000C10B5829C20B5829C30B582983120313A9
:1002C000A00183120313A001A8018312031386184F
:1002D0007729861A8A29061AAD29861BB429B318EC
:1002E0007429061BBB295E29061FBB295E29031141
:1002F0002030360203195E2903112130360203191A
:100300005E2903112F30360203195E293608840056
:10031000800A502903112030360203195E29031187
:100320002130360203195E2903112F3036020319DA
:100330005E293618A9290310031102303602840001
:100340000008B9003608840000083902031C0319AC
:100350005E293608840080035029031120303602BC
:1003600003195E29B603502903112F3036020319F1
:100370005E29B60A5029203083120313B700B80152
:10038000370884003808831203178D0000088C009A
:10039000831603178C130C158B138B1BCC2955302C
:1003A0008D00AA308D008C148B1783120313C101AA
:1003B000C201C10BD929C20BD929831603170C110D
:1003C00083120313B70AB80A381EC0298316031311
:1003D000051283120313833081000B118312031360
:1003E000B401FF30B5000B1DF3290B118312031369
:1003F000823081008312031310308506B40BF32979
:0A040000B50BF32908308606E92940
:02400E00C420CC
:02401000FF3E71
:00000001FF
