:020000040000FA
:02000000D12805
:08000800831203138501860138
:0A0010008701B310061BB314D128BA
:1000200082077E3430346D34793433345B345F345A
:1000300070347F347334603410344E340034BF0174
:10004000C001C101C2018312031333185228BE013B
:100050003008BC003108BD003C30BC020318352814
:100060000130BD020318352801300318BE0A0318F9
:100070002C283C30BC070A30BC020318C00A031805
:100080003B280A30BC070A30BE020318C20A031814
:1000900043280A30BE073C08BF003E08C1000A30B2
:1000A000C30069283208C0000230C1000A30C00213
:1000B000031C6328C10AC11D5628C11C56280A30DA
:1000C000C102C20A56280A30C0070B30C3000C30E8
:1000D000BF000530BA0043081020BB009620013055
:1000E000BA0042081020BB0096200230BA00410836
:1000F0001020BB0096200330BA0040081020BB003F
:1001000096200430BA003F081020BB00962008005B
:1001100083120313360884000008C700361CB000A1
:100120003618B20033103618331408008312031344
:1001300085123A08930083160313141C9D2883121A
:1001400003133B08930083160313141CA528831282
:10015000031385161030C4000130C5000130C600FD
:10016000C40BB028C50BB028C60BB02808000C3053
:10017000BA000130BB0096200F30BA000030BB003F
:1001800096200B30BA000430BB0096200930BA002C
:100190000030BB0096200A30BA000830BB00962021
:1001A00008008316031317308500F33086001030E3
:1001B000870083160313F33095008316031381130E
:1001C000831603178801831603178901831203130B
:1001D00086150030C4000030C5000430C600C40BD2
:1001E000EF28C50BEF28C60BEF2886110030C4009E
:1001F0000030C5000430C600C40BFC28C50BFC2829
:10020000C60BFC28831203132030B600B700B801D8
:10021000B001B101B201331083120313013006059E
:10022000831603130113031901178B100B168B117F
:10023000831603138C01831603138D018B1783160A
:10024000031361308F0083120313013094001416DE
:10025000831603139417141783120313941683122F
:100260000313370884003808831203178D008316A0
:1002700003178C130C14831203170C0880008312CD
:100280000313B70AB80A381E2F298820B7201F2069
:100290008316031381128111011581140114831235
:1002A000031381018B120B11831203179001831624
:1002B0000317900198010B1945298312031386181F
:1002C0006F29861A8F29061ABF29861BD329B318CE
:1002D0006C29061BE7295429061FE7295429031115
:1002E0002030360203195429031121303602031934
:1002F000542903112F30360203195429360884007B
:10030000800A1F20FF30C400FF30C5000130C60046
:10031000C40B8829C50B8829C60B882954290311C9
:1003200020303602031954290311213036020319F3
:10033000542903112F303602031954293618AE29D7
:10034000031003110230360284000008B900360899
:10035000840000083902031C03195429360884005C
:1003600080031F20FF30C400FF30C5000130C600ED
:10037000C40BB829C50BB829C60BB82954290311D9
:100380002030360203195429B6031F20FF30C40061
:10039000FF30C5000430C600C40BCC29C50BCC29E6
:1003A000C60BCC29542903112F30360203195429C6
:1003B000B60A1F20FF30C400FF30C5000430C6005D
:1003C000C40BE029C50BE029C60BE02954292030D5
:1003D00083120313B700B80137088400380883126A
:1003E00003178D0000088C00831603178C130C155F
:1003F0008B138B1BF82955308D00AA308D008C147F
:100400008B1783120313C401C501C40B052AC50B46
:10041000052A831603170C1183120313B70AB80AAF
:10042000381EEC2983160313051283160313811259
:100430008111011181100110831203138B12831299
:100440000313833081000B1183120313B401FF30B7
:10045000B5000B1D292A0B11831203138230810072
:100460008312031310308506B40B292AB50B292AF1
:06047000083086061F2A79
:02400E00C420CC
:02401000FF3E71
:00000001FF
