:020000040000FA
:02000000D12805
:08000800831203138501860138
:0A0010008701B410061BB414D128B8
:1000200082077E3430346D34793433345B345F345A
:1000300070347F347334603410344E340034C00173
:10004000C101C201C3018312031334185228BF0136
:100050003108BD003208BE003C30BD02031835280F
:100060000130BE020318352801300318BF0A0318F7
:100070002C283C30BD070A30BD020318C10A031802
:100080003B280A30BD070A30BF020318C30A031811
:1000900043280A30BF073D08C0003F08C2000A30AD
:1000A000C40069283308C1000230C2000A30C1020E
:1000B000031C6328C20AC21D5628C21C56280A30D7
:1000C000C202C30A56280A30C1070B30C4000C30E4
:1000D000C0000530BB0044081020BC009620013051
:1000E000BB0043081020BC0096200230BB00420831
:1000F0001020BC0096200330BB0041081020BC003B
:1001000096200430BB0040081020BC009620080058
:1001100083120313370884000008C800371CB1009D
:100120003718B3003410371834140800831203133F
:1001300085123B08930083160313141C9D28831219
:1001400003133C08930083160313141CA528831281
:10015000031385161030C5000130C6000130C700FA
:10016000C50BB028C60BB028C70BB02808000C3050
:10017000BB000130BC0096200F30BB000030BC003B
:1001800096200B30BB000430BC0096200930BB0029
:100190000030BC0096200A30BB000830BC0096201E
:1001A0000800831603131F308500F33086001030DB
:1001B000870083160313F33095008316031381130E
:1001C00083160317073088008316031789018316E7
:1001D00003139F139F161F12831203139F131F17DE
:1001E0008312031386150030C5000030C6000430AA
:1001F000C700C50BF928C60BF928C70BF9288611CB
:100200000030C5000030C6000430C700C50B062909
:10021000C60B0629C70B0629831203132030B7002B
:10022000B800B901B101B201B30134108312031354
:1002300001300605831603130113031901178B10F0
:100240000B168B11831603138C01831603138D0178
:100250008B178316031361308F0083120313013051
:1002600094001416831603139417141783120313A0
:100270009416831203133808840039088312031775
:100280008D00831603178C130C14831203170C08AC
:10029000800083120313B80AB90A391E392988204D
:1002A000B7201F20831603138112811101158114B9
:1002B00001148312031381018B120B118312031794
:1002C000900183160317900198010B194F2983128F
:1002D000031386187929861A9929061AC929861BB3
:1002E000DD29B4187629061BF1295E29061FF1299C
:1002F0005E2903112030370203195E2903112130D2
:10030000370203195E2903112F30370203195E29C2
:1003100037088400800A1F20FF30C500FF30C60068
:100320000130C700C50B9229C60B9229C70B922931
:100330005E2903112030370203195E290311213091
:10034000370203195E2903112F30370203195E2982
:100350003718B8290310031102303702840000084F
:10036000BA003708840000083A02031C03195E290A
:100370003708840080031F20FF30C500FF30C6000F
:100380000130C700C50BC229C60BC229C70BC22941
:100390005E2903112030370203195E29B7031F209D
:1003A000FF30C500FF30C6000230C700C50BD6299C
:1003B000C60BD629C70BD6295E2903112F30370269
:1003C00003195E29B70A1F20FF30C500FF30C600A1
:1003D0000230C700C50BEA29C60BEA29C70BEA2978
:1003E0005E29203083120313B800B9013808840055
:1003F0003908831203178D0000088C008316031739
:100400008C130C158B138B1B022A55308D00AA30D0
:100410008D008C148B1783120313C501C601C50B05
:100420000F2AC60B0F2A831603170C11831203130E
:10043000B80AB90A391EF6298316031381128111ED
:10044000011181100110831203138B128316031301
:10045000051283120313B101B201B0018312031319
:10046000833081000B1183120313B5011930B600DC
:10047000831203131F159F111F129F121F140000D8
:1004800000000000000000009F149F18452A8312FE
:1004900003131E0883120313B3000B1D4D2A0B1107
:1004A000831203138230831203133410311834146F
:1004B0001F200B1D592A0B11831203138230810058
:1004C0008312031310308506B50B592AB60B592A2F
:0C04D00083120313B10A0319B20A2E2A8A
:02400E00C420CC
:02401000FF3E71
:00000001FF
