:020000040000FA
:020000000000FE
:08000800831203138501860138
:1000100087018D2882077E3430346D34793433344F
:100020005B345F3470347F347334603410344E3456
:10003000003483120313350884000008BB00BC01A0
:10004000BD016430BB020318BD0A031821286430C7
:10005000BB070A30BB020318BC0A031829280A3060
:10006000BB07351852280530B9000A300A20BA00FB
:1000700071200130B9000D300A20BA007120023021
:10008000B9003D080A20BA0071200330B9003C08CD
:100090000A20BA0071200430B9003B080A20BA00D7
:1000A000712008000530B9000B300A20BA00712019
:1000B0000130B9003D080A20BA0071200230B900B1
:1000C0003C080A20BA0071200330B9003B080A201E
:1000D000BA0071200430B9000C300A20BA00712037
:1000E0000800831203138512390893008316031343
:1000F000141C7828831203133A0893008316031301
:10010000141C80288312031385160800B301B40160
:10011000B30B8828B40B88280800831603131F30FC
:100120008500013086001030870083160317880190
:100130008316031789018312031307170430A200E3
:10014000A00BA028A10BA028A20BA0280713043005
:10015000A200A00BA928A10BA928A20BA9288312F1
:1001600003132030B500B600B701B001B20183120D
:100170000313013006058316031301130319011736
:100180008B100B168B178312031301309400141677
:1001900083160313941714178312031394160C3049
:1001A000B9000130BA0071200B30B9000430BA0038
:1001B00071200930B9000030BA0071200A30B9004E
:1001C0000830BA00712083160313811783160313B6
:1001D00081128111011181100110831203138B12FE
:1001E00083120313360884003708831203178D0027
:1001F000831603178C130C14831203170C0880004A
:1002000083120313B60AB70A371EF028A001A10112
:10021000AF011920831203130519172905182C297A
:1002200085185129051A5A29851D63290A2986200E
:1002300003112030350203190A2903112130350238
:1002400003190A2903112F30350203190A29350829
:100250008400800A19200A298620031120303502E3
:1002600003190A2903112130350203190A29031140
:100270002F30350203190A2935184C2903100311B0
:100280000230350284000008B800350884000008F8
:100290003802031C03190A29350884008003192039
:1002A0000A29862003112030350203190A29B503D3
:1002B00019200A29862003112F30350203190A2933
:1002C000B50A19200A298620203083120313B600AC
:1002D000B701360884003708831203178D00000821
:1002E0008C00831603178C130C158B138B1B75292D
:1002F00055308D00AA308D008C148B178312031398
:10030000BE01BF01BE0B8229BF0B822983160317D2
:100310000C1183120313B60AB70A371E6929831218
:1003200003135C3081000B1183120313B3010030FF
:10033000B4000B1D99295C308100831203138030B7
:100340008706B30B9929B40B9929403087068F296A
:02400E00C420CC
:02401000FF3E71
:00000001FF
