:020000040000FA
:02000000EB28EB
:08000800831203138501860138
:0A0010008701B410061BB414EB289E
:1000200082077E3430346D34793433345B345F345A
:1000300070347F347334603410344E340034C00173
:10004000C101C201C3018312031334185228BF0136
:100050003108BD003208BE003C30BD02031835280F
:100060000130BE020318352801300318BF0A0318F7
:100070002C283C30BD070A30BD020318C10A031802
:100080003B280A30BD070A30BF020318C30A031811
:1000900043280A30BF073D08C0003F08C2000A30AD
:1000A000C40069283308C1000230C2000A30C1020E
:1000B000031C6328C20AC21D5628C21C56280A30D7
:1000C000C202C30A56280A30C1070B30C4000C30E4
:1000D000C0000530BB0044081020BC009620013051
:1000E000BB0043081020BC0096200230BB00420831
:1000F0001020BC0096200330BB0041081020BC003B
:1001000096200430BB0040081020BC009620080058
:1001100083120313370884000008C800371CB1009D
:100120003718B3003410371834140800831203133F
:1001300085123B08930083160313141C9D28831219
:1001400003133C0883120313930083160313141C38
:10015000A7288312031385161030C5000130C6008E
:100160000130C700C50BB228C60BB228C70BB22896
:1001700008000C30BB000130BC0096200F30BB00E3
:100180000030BC0096200B30BB000430BC00962031
:100190000930BB000030BC0096200A30BB0008309C
:1001A000BC00962008000B1DD3280B1183120313EB
:1001B00082308100831203131030850683120313EB
:1001C00064300F0203188F0183120313B50BD32879
:1001D000B60BD3280800831603131F308500F330B5
:1001E00086001030870083160313F33095008316C2
:1001F0000313811383160317073088008316031730
:1002000089018312031386150030C5000030C60033
:100210000430C700C50B0A29C60B0A29C70B0A29D7
:1002200086110030C5000030C6000430C700C50B81
:100230001729C60B1729C70B17298316031371300B
:100240008F00831603139F139F161F12831203132D
:1002500080309F131F17831203132030B700B8009C
:10026000B901B101B201B30134108312031301309B
:100270000605831603130113031901178B100B16C0
:100280008B11831603138C01831603138D018B17B7
:10029000831203139001101483120313950132305B
:1002A0009600831203139B0163309C008312031397
:1002B00002309700831203139D0083120313013051
:1002C0009400141683160313941714178312031340
:1002D0009416831203133808840039088312031715
:1002E0008D00831603178C130C14831203170C084C
:1002F000800083120313B80AB90A391E69298820BD
:10030000B9201F20831603130630810083120313C4
:1003100081018B120B1183120317900183160317AF
:10032000900198010B197F29831203138618AC29B9
:10033000861ACC29061AFC29861B102A831203135D
:10034000B418A72983120313061B242A8B298312AE
:100350000313061F242A8B290311203037020319A7
:100360008B2903112130370203198B2903112F30F8
:10037000370203198B2937088400800A1F20FF30B9
:10038000C500FF30C6000130C700C50BC529C60B2C
:10039000C529C70BC5298B29031120303702031942
:1003A0008B2903112130370203198B2903112F30B8
:1003B000370203198B293718EB2903100311023078
:1003C000370284000008BA003708840000083A02A7
:1003D000031C03198B293708840080031F20FF307A
:1003E000C500FF30C6000130C700C50BF529C60B9C
:1003F000F529C70BF5298B29031120303702031982
:100400008B29B7031F20FF30C500FF30C600023024
:10041000C700C50B092AC60B092AC70B092A8B2955
:1004200003112F30370203198B29B70A1F20FF3021
:10043000C500FF30C6000230C700C50B1D2AC60B21
:100440001D2AC70B1D2A8B298316031381128111C4
:10045000011181100110831203138B1283120313F5
:10046000851D5E2A831603130512831203130330BE
:10047000B600D3208316031305168312031303302B
:10048000B600D3208316031305128312031303301F
:10049000B600D3208316031305168312031303300B
:1004A000B600D320831603130512831203130330FF
:1004B000B600D320831603130516012820308312BB
:1004C0000313B800B90138088400390883120317F0
:1004D0008D0000088C00831603178C130C158B13EA
:1004E0008B1B6F2A55308D00AA308D008C148B1712
:1004F00083120313C501C601C50B7C2AC60B7C2AD7
:10050000831603170C1183120313B80AB90A391E94
:10051000632A83120313071483120313B101B20178
:10052000B00183120313833081000B118312031374
:10053000B5011930B600831203131F159F111F1246
:100540009F121F14000000000000000000009F1414
:100550009F18A82A831203131E0883120313B300E3
:100560000B1DB02A0B118312031382308312031365
:100570003410311834141F20D32083120313B10A0E
:060580000319B20A912AE2
:02400E00C420CC
:02401000FF3E71
:00000001FF
