:020000040000FA
:0200000089284D
:0800080082077E3430346D34B0
:10001000793433345B345F3470347F347334603418
:1000200010344E3400348312031335088400000862
:10003000BB00BC01BD016430BB020318BD0A03183C
:100040001B286430BB070A30BB020318BC0A031824
:1000500023280A30BB0735184C280530B9000A3070
:100060000420BA006B200130B9000D300420BA0022
:100070006B200230B9003D080420BA006B20033029
:10008000B9003C080420BA006B200430B9003B08DA
:100090000420BA006B2008000530B9000B300420A2
:1000A000BA006B200130B9003D080420BA006B2073
:1000B0000230B9003C080420BA006B200330B900BC
:1000C0003B080420BA006B200430B9000C30042037
:1000D000BA006B20080083120313851239089300BD
:1000E00083160313141C7228831203133A08930017
:1000F00083160313141C7A28831203138516000039
:1001000000000800B301B401B30B8428B40B8428A9
:1001100008008312031385018601870183160313E8
:100120001F308500013086001030870083160317CA
:100130008801831603178901831203132030B50049
:10014000B600B701B001B20183120313013094006D
:10015000141683160313941714178312031394169B
:100160000C30B9000130BA006B200B30B9000430FC
:10017000BA006B200930B9000030BA006B200A3099
:10018000B9000830BA006B20831603138117831659
:1001900003138112811101118110011083120313C5
:1001A0008B12831203133608840037088312031757
:1001B0008D00831603178C130C14831203170C087D
:1001C000800083120313B60AB70A371ED128A00194
:1001D000A101AF011320831203130519F828051894
:1001E0000D2985183229051A3B29851D4429EB283C
:1001F00082200311203035020319EB28031121302E
:1002000035020319EB2803112F3035020319EB28AF
:1002100035088400800A1320EB2882200311203047
:1002200035020319EB280311213035020319EB289D
:1002300003112F3035020319EB2835182D2903102F
:1002400003110230350284000008B800350884002C
:1002500000083802031C0319EB28350884008003CA
:100260001320EB2882200311203035020319EB28DC
:10027000B5031320EB28822003112F303502031918
:10028000EB28B50A1320EB288220203083120313B9
:10029000B600B701360884003708831203178D00B3
:1002A00000088C00831603178C130C158B138B1B03
:1002B000562955308D00AA308D008C148B1783126F
:1002C0000313BE01BF01BE0B6329BF0B6329831655
:1002D00003170C1183120313B60AB70A371E4A29F3
:02400E00C420CC
:02401000FF3E71
:00000001FF
