:020000040000FA
:020000007E2858
:0800080082077E3430346D34B0
:10001000793433345B345F3470347F347334603418
:1000200010344E340034320884000008B600B701A2
:10003000B8016430B6020318B80A031819286430EE
:10004000B6070A30B6020318B70A031821280A3087
:10005000B60732184A280130B4000A300420B5002F
:1000600069200230B4000D300420B500692003304F
:10007000B40038080420B50069200430B400370803
:100080000420B50069200530B40036080420B5000E
:10009000692008000130B4000B300420B50069204D
:1000A0000230B40038080420B50069200330B400E1
:1000B00037080420B50069200430B4003608042055
:1000C000B50069200530B4008C080420B500692013
:1000D0000800831203138512340893008316031358
:1000E000141C70288312031335089300831603131E
:1000F000141C782883120313851608008312031337
:10010000850186018701831603131F3085000130A6
:100110008600103087002030B200B001B101831298
:100120000313013094001416831603139417141745
:100130008312031394160C30B4000130B50069200B
:100140000B30B4000430B50069200930B400003031
:10015000B50069200A30B4000830B5006920783055
:04016000A0001320C8
:02400E00C420CC
:02401000FF3E71
:00000001FF
