:020000040000FA
:100000000000000000000000831203138501860138
:040010008701B92883
:1000200082077E3430346D34793433345B345F345A
:1000300070347F347334603410344E340034BD0176
:10004000BE01BF01C0018312031333185B28831262
:1000500003133008BC006430BC020318BF0A031845
:100060002B286430BC070A30BC020318BE0A0318F0
:1000700033280A303C07BD000530BA000A30102092
:10008000BB0098200130BA000D301020BB00982032
:100090000230BA003F081020BB0098200330BA009D
:1000A0003E081020BB0098200430BA003D08102004
:1000B000BB00982008003208BD000230BE000A30A4
:1000C000BD02031C6A28BE0ABE195F28BE185F283D
:1000D000BF0A5F280A30BD070530BA000B30102078
:1000E000BB0098200130BA003F081020BB009820C8
:1000F0000230BA003E081020BB0098200330BA003E
:100100003D081020BB0098200430BA000C301020AD
:10011000BB009820080083120313360884000008EF
:10012000C400441CB0004418B2003608B3000800F4
:100130008312031385123A08930083160313141CC9
:100140009F28831203133B08930083160313141C88
:10015000A7288312031385161030C1000130C20096
:100160000130C300C10BB228C20BB228C30BB228A6
:100170000800831603131F308500013086001030FD
:1001800087008316031788018316031789018312DA
:10019000031307170030C1000030C2000430C30051
:1001A000C10BD028C20BD028C30BD02807130030B6
:1001B000C1000030C2000430C300C10BDD28C20BF7
:1001C000DD28C30BDD28831203132030B600B700EF
:1001D000B801B001B101B201831203130130060569
:1001E000831603130113031901178B100B168B11C0
:1001F000831603138C01831603138D018B1783124F
:100200000313013094001416831603139417141764
:100210008312031394160C30BA000130BB009820EF
:100220000F30BA000030BB0098200B30BA00043009
:10023000BB0098200930BA000030BB0098200A307B
:10024000BA000830BB009820831603138117831669
:100250000313811281110111811001108312031304
:100260008B12831203133708840038088312031794
:100270008D00831603178C130C14831203170C08BC
:10028000800083120313B70AB80A381E31298B2065
:100290001F200030C1000030C2000230C300C10B7B
:1002A0004F29C20B4F29C30B4F2983120313A001FF
:1002B00083120313A001A8018312031305196729F0
:1002C00005187A2985189D29051AA429552903118D
:1002D0002030360203195529031121303602031943
:1002E000552903112F303602031955293608840089
:1002F000800A4729031120303602031955290311BA
:10030000213036020319552903112F303602031903
:10031000552936189929031003110230360284003A
:100320000008B9003608840000083902031C0319CC
:1003300055293608840080034729031120303602EE
:1003400003195529B603472903112F303602031923
:100350005529B60A4729203083120313B700B80184
:10036000370884003808831203178D0000088C00BA
:10037000831603178C130C158B138B1BBC2955305C
:100380008D00AA308D008C148B1783120313C101CA
:10039000C201C10BC929C20BC929831603170C114D
:1003A00083120313B70AB80A381EB0298312031345
:1003B000063081000B1183120313B401FF30B50026
:1003C0000B1DE0290630810083120313803087065D
:0E03D000B40BE029B50BE02940308706D62992
:02400E00C420CC
:02401000FF3E71
:00000001FF
